{
  "contractName": "ChainlinkExample",
  "abi": [
    {
      "inputs": [
        {
          "internalType": "address payable",
          "name": "_beneficiary",
          "type": "address"
        },
        {
          "internalType": "uint256",
          "name": "_releaseTime",
          "type": "uint256"
        }
      ],
      "payable": true,
      "stateMutability": "payable",
      "type": "constructor"
    },
    {
      "anonymous": false,
      "inputs": [
        {
          "indexed": true,
          "internalType": "bytes32",
          "name": "id",
          "type": "bytes32"
        }
      ],
      "name": "ChainlinkCancelled",
      "type": "event"
    },
    {
      "anonymous": false,
      "inputs": [
        {
          "indexed": true,
          "internalType": "bytes32",
          "name": "id",
          "type": "bytes32"
        }
      ],
      "name": "ChainlinkFulfilled",
      "type": "event"
    },
    {
      "anonymous": false,
      "inputs": [
        {
          "indexed": true,
          "internalType": "bytes32",
          "name": "id",
          "type": "bytes32"
        }
      ],
      "name": "ChainlinkRequested",
      "type": "event"
    },
    {
      "constant": true,
      "inputs": [],
      "name": "beneficiary",
      "outputs": [
        {
          "internalType": "address payable",
          "name": "",
          "type": "address"
        }
      ],
      "payable": false,
      "stateMutability": "view",
      "type": "function"
    },
    {
      "constant": true,
      "inputs": [],
      "name": "currentPrice",
      "outputs": [
        {
          "internalType": "uint256",
          "name": "",
          "type": "uint256"
        }
      ],
      "payable": false,
      "stateMutability": "view",
      "type": "function"
    },
    {
      "constant": true,
      "inputs": [],
      "name": "owner",
      "outputs": [
        {
          "internalType": "address",
          "name": "",
          "type": "address"
        }
      ],
      "payable": false,
      "stateMutability": "view",
      "type": "function"
    },
    {
      "constant": true,
      "inputs": [],
      "name": "releaseTime",
      "outputs": [
        {
          "internalType": "uint256",
          "name": "",
          "type": "uint256"
        }
      ],
      "payable": false,
      "stateMutability": "view",
      "type": "function"
    },
    {
      "constant": false,
      "inputs": [
        {
          "internalType": "address",
          "name": "_oracle",
          "type": "address"
        },
        {
          "internalType": "bytes32",
          "name": "_jobId",
          "type": "bytes32"
        },
        {
          "internalType": "uint256",
          "name": "_payment",
          "type": "uint256"
        }
      ],
      "name": "requestEthereumPrice",
      "outputs": [],
      "payable": false,
      "stateMutability": "nonpayable",
      "type": "function"
    },
    {
      "constant": false,
      "inputs": [
        {
          "internalType": "bytes32",
          "name": "_requestId",
          "type": "bytes32"
        },
        {
          "internalType": "uint256",
          "name": "_price",
          "type": "uint256"
        }
      ],
      "name": "fulfill",
      "outputs": [],
      "payable": false,
      "stateMutability": "nonpayable",
      "type": "function"
    },
    {
      "constant": false,
      "inputs": [
        {
          "internalType": "bytes32",
          "name": "_requestId",
          "type": "bytes32"
        },
        {
          "internalType": "uint256",
          "name": "_payment",
          "type": "uint256"
        },
        {
          "internalType": "bytes4",
          "name": "_callbackFunctionId",
          "type": "bytes4"
        },
        {
          "internalType": "uint256",
          "name": "_expiration",
          "type": "uint256"
        }
      ],
      "name": "cancelRequest",
      "outputs": [],
      "payable": false,
      "stateMutability": "nonpayable",
      "type": "function"
    },
    {
      "constant": false,
      "inputs": [],
      "name": "withdrawLink",
      "outputs": [],
      "payable": false,
      "stateMutability": "nonpayable",
      "type": "function"
    }
  ],
  "bytecode": "0x608060405260016004556040516200191238038062001912833981810160405260408110156200002e57600080fd5b810190808051906020019092919080519060200190929190505050428111620000a3576040517f08c379a0000000000000000000000000000000000000000000000000000000008152600401808060200182810382526037815260200180620018db6037913960400191505060405180910390fd5b81600860006101000a81548173ffffffffffffffffffffffffffffffffffffffff021916908373ffffffffffffffffffffffffffffffffffffffff16021790555080600981905550620000fb6200014460201b60201c565b33600760006101000a81548173ffffffffffffffffffffffffffffffffffffffff021916908373ffffffffffffffffffffffffffffffffffffffff160217905550505062000232565b620001ec73c89bd4e1632d3a43cb03aaad5262cbe4038bc57173ffffffffffffffffffffffffffffffffffffffff166338cc48316040518163ffffffff1660e01b815260040160206040518083038186803b158015620001a357600080fd5b505afa158015620001b8573d6000803e3d6000fd5b505050506040513d6020811015620001cf57600080fd5b8101908080519060200190929190505050620001ee60201b60201c565b565b80600260006101000a81548173ffffffffffffffffffffffffffffffffffffffff021916908373ffffffffffffffffffffffffffffffffffffffff16021790555050565b61169980620002426000396000f3fe608060405234801561001057600080fd5b50600436106100885760003560e01c80638dc654a21161005b5780638dc654a2146101b15780639d1b464a146101bb578063b91d4001146101d9578063ec65d0f8146101f757610088565b8063305246141461008d57806338af3eed146100e55780634357855e1461012f5780638da5cb5b14610167575b600080fd5b6100e3600480360360608110156100a357600080fd5b81019080803573ffffffffffffffffffffffffffffffffffffffff1690602001909291908035906020019092919080359060200190929190505050610262565b005b6100ed61047f565b604051808273ffffffffffffffffffffffffffffffffffffffff1673ffffffffffffffffffffffffffffffffffffffff16815260200191505060405180910390f35b6101656004803603604081101561014557600080fd5b8101908080359060200190929190803590602001909291905050506104a5565b005b61016f6105cc565b604051808273ffffffffffffffffffffffffffffffffffffffff1673ffffffffffffffffffffffffffffffffffffffff16815260200191505060405180910390f35b6101b96105f2565b005b6101c36108af565b6040518082815260200191505060405180910390f35b6101e16108b5565b6040518082815260200191505060405180910390f35b6102606004803603608081101561020d57600080fd5b81019080803590602001909291908035906020019092919080357bffffffffffffffffffffffffffffffffffffffffffffffffffffffff19169060200190929190803590602001909291905050506108bb565b005b600760009054906101000a900473ffffffffffffffffffffffffffffffffffffffff1673ffffffffffffffffffffffffffffffffffffffff163373ffffffffffffffffffffffffffffffffffffffff1614610325576040517f08c379a00000000000000000000000000000000000000000000000000000000081526004018080602001828103825260058152602001807f4572726f7200000000000000000000000000000000000000000000000000000081525060200191505060405180910390fd5b61032d611539565b61033f8330634357855e60e01b610990565b90506103a36040518060400160405280600381526020017f67657400000000000000000000000000000000000000000000000000000000008152506040518060600160405280603f81526020016115fe603f9139836109c19092919063ffffffff16565b6104226040518060400160405280600481526020017f70617468000000000000000000000000000000000000000000000000000000008152506040518060400160405280600381526020017f5553440000000000000000000000000000000000000000000000000000000000815250836109c19092919063ffffffff16565b61046d6040518060400160405280600581526020017f74696d65730000000000000000000000000000000000000000000000000000008152506064836109f49092919063ffffffff16565b610478848284610a27565b5050505050565b600860009054906101000a900473ffffffffffffffffffffffffffffffffffffffff1681565b816005600082815260200190815260200160002060009054906101000a900473ffffffffffffffffffffffffffffffffffffffff1673ffffffffffffffffffffffffffffffffffffffff163373ffffffffffffffffffffffffffffffffffffffff161461055d576040517f08c379a000000000000000000000000000000000000000000000000000000000815260040180806020018281038252602881526020018061163d6028913960400191505060405180910390fd5b6005600082815260200190815260200160002060006101000a81549073ffffffffffffffffffffffffffffffffffffffff0219169055807f7cc135e0cebb02c3480ae5d74d377283180a2601f8f644edf7987b009316c63a60405160405180910390a281600681905550505050565b600760009054906101000a900473ffffffffffffffffffffffffffffffffffffffff1681565b600760009054906101000a900473ffffffffffffffffffffffffffffffffffffffff1673ffffffffffffffffffffffffffffffffffffffff163373ffffffffffffffffffffffffffffffffffffffff16146106b5576040517f08c379a00000000000000000000000000000000000000000000000000000000081526004018080602001828103825260058152602001807f4572726f7200000000000000000000000000000000000000000000000000000081525060200191505060405180910390fd5b60006106bf610cdf565b90508073ffffffffffffffffffffffffffffffffffffffff1663a9059cbb338373ffffffffffffffffffffffffffffffffffffffff166370a08231306040518263ffffffff1660e01b8152600401808273ffffffffffffffffffffffffffffffffffffffff1673ffffffffffffffffffffffffffffffffffffffff16815260200191505060206040518083038186803b15801561075b57600080fd5b505afa15801561076f573d6000803e3d6000fd5b505050506040513d602081101561078557600080fd5b81019080805190602001909291905050506040518363ffffffff1660e01b8152600401808373ffffffffffffffffffffffffffffffffffffffff1673ffffffffffffffffffffffffffffffffffffffff16815260200182815260200192505050602060405180830381600087803b1580156107ff57600080fd5b505af1158015610813573d6000803e3d6000fd5b505050506040513d602081101561082957600080fd5b81019080805190602001909291905050506108ac576040517f08c379a00000000000000000000000000000000000000000000000000000000081526004018080602001828103825260128152602001807f556e61626c6520746f207472616e73666572000000000000000000000000000081525060200191505060405180910390fd5b50565b60065481565b60095481565b600760009054906101000a900473ffffffffffffffffffffffffffffffffffffffff1673ffffffffffffffffffffffffffffffffffffffff163373ffffffffffffffffffffffffffffffffffffffff161461097e576040517f08c379a00000000000000000000000000000000000000000000000000000000081526004018080602001828103825260058152602001807f4572726f7200000000000000000000000000000000000000000000000000000081525060200191505060405180910390fd5b61098a84848484610d09565b50505050565b610998611539565b6109a0611539565b6109b785858584610e6c909392919063ffffffff16565b9150509392505050565b6109d8828460800151610f1c90919063ffffffff16565b6109ef818460800151610f1c90919063ffffffff16565b505050565b610a0b828460800151610f1c90919063ffffffff16565b610a22818460800151610f4190919063ffffffff16565b505050565b600030600454604051602001808373ffffffffffffffffffffffffffffffffffffffff1673ffffffffffffffffffffffffffffffffffffffff1660601b815260140182815260200192505050604051602081830303815290604052805190602001209050600454836060018181525050836005600083815260200190815260200160002060006101000a81548173ffffffffffffffffffffffffffffffffffffffff021916908373ffffffffffffffffffffffffffffffffffffffff160217905550807fb5e6e01e79f91267dc17b4e6314d5d4d03593d2ceee0fbb452b750bd70ea5af960405160405180910390a2600260009054906101000a900473ffffffffffffffffffffffffffffffffffffffff1673ffffffffffffffffffffffffffffffffffffffff16634000aea08584610b5f87610f8d565b6040518463ffffffff1660e01b8152600401808473ffffffffffffffffffffffffffffffffffffffff1673ffffffffffffffffffffffffffffffffffffffff16815260200183815260200180602001828103825283818151815260200191508051906020019080838360005b83811015610be6578082015181840152602081019050610bcb565b50505050905090810190601f168015610c135780820380516001836020036101000a031916815260200191505b50945050505050602060405180830381600087803b158015610c3457600080fd5b505af1158015610c48573d6000803e3d6000fd5b505050506040513d6020811015610c5e57600080fd5b8101908080519060200190929190505050610cc4576040517f08c379a00000000000000000000000000000000000000000000000000000000081526004018080602001828103825260238152602001806115db6023913960400191505060405180910390fd5b60016004600082825401925050819055508090509392505050565b6000600260009054906101000a900473ffffffffffffffffffffffffffffffffffffffff16905090565b60006005600086815260200190815260200160002060009054906101000a900473ffffffffffffffffffffffffffffffffffffffff1690506005600086815260200190815260200160002060006101000a81549073ffffffffffffffffffffffffffffffffffffffff0219169055847fe1fe3afa0f7f761ff0a8b89086790efd5140d2907ebd5b7ff6bfcb5e075fd4c560405160405180910390a28073ffffffffffffffffffffffffffffffffffffffff16636ee4d553868686866040518563ffffffff1660e01b815260040180858152602001848152602001837bffffffffffffffffffffffffffffffffffffffffffffffffffffffff19167bffffffffffffffffffffffffffffffffffffffffffffffffffffffff19168152602001828152602001945050505050600060405180830381600087803b158015610e4d57600080fd5b505af1158015610e61573d6000803e3d6000fd5b505050505050505050565b610e74611539565b610e848560800151610100611194565b508385600001818152505082856020019073ffffffffffffffffffffffffffffffffffffffff16908173ffffffffffffffffffffffffffffffffffffffff16815250508185604001907bffffffffffffffffffffffffffffffffffffffffffffffffffffffff191690817bffffffffffffffffffffffffffffffffffffffffffffffffffffffff191681525050849050949350505050565b610f2982600383516111e8565b610f3c818361132d90919063ffffffff16565b505050565b60008112610f5a57610f55826000836111e8565b610f89565b610f88826001837fffffffffffffffffffffffffffffffffffffffffffffffffffffffffffffffff036111e8565b5b5050565b6060600360009054906101000a900473ffffffffffffffffffffffffffffffffffffffff1673ffffffffffffffffffffffffffffffffffffffff166340429946905060e01b60008084600001518560200151866040015187606001516001896080015160000151604051602401808973ffffffffffffffffffffffffffffffffffffffff1673ffffffffffffffffffffffffffffffffffffffff1681526020018881526020018781526020018673ffffffffffffffffffffffffffffffffffffffff1673ffffffffffffffffffffffffffffffffffffffff168152602001857bffffffffffffffffffffffffffffffffffffffffffffffffffffffff19167bffffffffffffffffffffffffffffffffffffffffffffffffffffffff1916815260200184815260200183815260200180602001828103825283818151815260200191508051906020019080838360005b838110156110f75780820151818401526020810190506110dc565b50505050905090810190601f1680156111245780820380516001836020036101000a031916815260200191505b509950505050505050505050604051602081830303815290604052907bffffffffffffffffffffffffffffffffffffffffffffffffffffffff19166020820180517bffffffffffffffffffffffffffffffffffffffffffffffffffffffff83818316178352505050509050919050565b61119c6115a6565b6000602083816111a857fe5b06146111c157602082816111b857fe5b06602003820191505b81836020018181525050604051808452600081528281016020016040525082905092915050565b601781116112155761120f8160058460ff16901b60ff16178461134f90919063ffffffff16565b50611328565b60ff81116112575761123a601860058460ff16901b178461134f90919063ffffffff16565b506112518160018561136f9092919063ffffffff16565b50611327565b61ffff811161129a5761127d601960058460ff16901b178461134f90919063ffffffff16565b506112948160028561136f9092919063ffffffff16565b50611326565b63ffffffff81116112df576112c2601a60058460ff16901b178461134f90919063ffffffff16565b506112d98160048561136f9092919063ffffffff16565b50611325565b67ffffffffffffffff81116113245761130b601b60058460ff16901b178461134f90919063ffffffff16565b506113228160088561136f9092919063ffffffff16565b505b5b5b5b5b505050565b6113356115a6565b61134783846000015151848551611391565b905092915050565b6113576115a6565b611367838460000151518461144a565b905092915050565b6113776115a6565b611388848560000151518585611498565b90509392505050565b6113996115a6565b82518211156113a757600080fd5b846020015182850111156113d2576113d18560026113cb88602001518887016114f9565b02611515565b5b6000808651805187602083010193508088870111156113f15787860182525b60208701925050505b6020841061141d57805182526020820191506020810190506020840393506113fa565b60006001856020036101000a03905080198251168184511681811785525050879350505050949350505050565b6114526115a6565b8360200151831061146f5761146e846002866020015102611515565b5b835180516020858301018481538186141561148b576001820183525b5050508390509392505050565b6114a06115a6565b846020015184830111156114be576114bd85600286850102611515565b5b60006001836101000a03905085518386820101858319825116178152815185880111156114eb5784870182525b505085915050949350505050565b60008183111561150b5782905061150f565b8190505b92915050565b6060826000015190506115288383611194565b50611533838261132d565b50505050565b6040518060a0016040528060008019168152602001600073ffffffffffffffffffffffffffffffffffffffff16815260200160007bffffffffffffffffffffffffffffffffffffffffffffffffffffffff19168152602001600081526020016115a06115c0565b81525090565b604051806040016040528060608152602001600081525090565b60405180604001604052806060815260200160008152509056fe756e61626c6520746f207472616e73666572416e6443616c6c20746f206f7261636c6568747470733a2f2f6d696e2d6170692e63727970746f636f6d706172652e636f6d2f646174612f70726963653f6673796d3d455448267473796d733d555344536f75726365206d75737420626520746865206f7261636c65206f66207468652072657175657374a265627a7a723158204653c8726962fda8c19cc02bbfc5afc32c8a6dbdfbcd7fb606fe9250d891686564736f6c6343000510003252656c656173652074696d65206d757374206265207365742061667465722063757272656e7420626c6f636b2074696d657374616d702e",
  "source": "pragma solidity ^0.5.0;\n\nimport \"@chainlink/contracts/src/v0.5/ChainlinkClient.sol\";\n\n// MyContract inherits the ChainlinkClient contract to gain the\n// functionality of creating Chainlink requests\ncontract ChainlinkExample is ChainlinkClient {\n    // Stores the answer from the Chainlink oracle\n    uint256 public currentPrice;\n    address public owner;\n\n    address payable public beneficiary;\n    uint256 public releaseTime;\n\n    constructor(address payable _beneficiary, uint256 _releaseTime)\n        public\n        payable\n    {\n        require(\n            _releaseTime > block.timestamp,\n            \"Release time must be set after current block timestamp.\"\n        );\n        beneficiary = _beneficiary;\n        releaseTime = _releaseTime;\n        // Set the address for the LINK token for the network\n\n        setPublicChainlinkToken();\n        owner = msg.sender;\n    }\n\n    // Creates a Chainlink request with the uint256 multiplier job\n    function requestEthereumPrice(\n        address _oracle,\n        bytes32 _jobId,\n        uint256 _payment\n    ) public onlyOwner {\n        // newRequest takes a JobID, a callback address, and callback function as input\n        Chainlink.Request memory req = buildChainlinkRequest(\n            _jobId,\n            address(this),\n            this.fulfill.selector\n        );\n        // Adds a URL with the key \"get\" to the request parameters\n        req.add(\n            \"get\",\n            \"https://min-api.cryptocompare.com/data/price?fsym=ETH&tsyms=USD\"\n        );\n        // Uses input param (dot-delimited string) as the \"path\" in the request parameters\n        req.add(\"path\", \"USD\");\n        // Adds an integer with the key \"times\" to the request parameters\n        req.addInt(\"times\", 100);\n        // Sends the request with the amount of payment specified to the oracle\n        sendChainlinkRequestTo(_oracle, req, _payment);\n    }\n\n    // fulfill receives a uint256 data type\n    function fulfill(bytes32 _requestId, uint256 _price)\n        public\n        // Use recordChainlinkFulfillment to ensure only the requesting oracle can fulfill\n        recordChainlinkFulfillment(_requestId)\n    {\n        currentPrice = _price;\n    }\n\n    // cancelRequest allows the owner to cancel an unfulfilled request\n    function cancelRequest(\n        bytes32 _requestId,\n        uint256 _payment,\n        bytes4 _callbackFunctionId,\n        uint256 _expiration\n    ) public onlyOwner {\n        cancelChainlinkRequest(\n            _requestId,\n            _payment,\n            _callbackFunctionId,\n            _expiration\n        );\n    }\n\n    // withdrawLink allows the owner to withdraw any extra LINK on the contract\n    function withdrawLink() public onlyOwner {\n        LinkTokenInterface link = LinkTokenInterface(chainlinkTokenAddress());\n        require(\n            link.transfer(msg.sender, link.balanceOf(address(this))),\n            \"Unable to transfer\"\n        );\n    }\n\n    modifier onlyOwner() {\n        require(msg.sender == owner, \"Error\");\n        _;\n    }\n}\n",
  "sourcePath": "/Users/colinbowen/Documents/workspace/chainlink/piggy/contracts/ChainlinkReference.sol",
  "compiler": {
    "name": "solc",
    "version": "0.5.16+commit.9c3226ce.Emscripten.clang"
  },
  "schemaVersion": "3.2.3",
  "updatedAt": "2020-07-26T00:27:22.236Z",
  "devdoc": {
    "methods": {}
  },
  "userdoc": {
    "methods": {}
  }
}