{
  "contractName": "Timelock",
  "abi": [
    {
      "inputs": [
        {
          "internalType": "address",
          "name": "_aggregator",
          "type": "address"
        }
      ],
      "stateMutability": "nonpayable",
      "type": "constructor"
    },
    {
      "inputs": [],
      "name": "beneficiary",
      "outputs": [
        {
          "internalType": "address payable",
          "name": "",
          "type": "address"
        }
      ],
      "stateMutability": "view",
      "type": "function"
    },
    {
      "inputs": [],
      "name": "currentPrice",
      "outputs": [
        {
          "internalType": "int256",
          "name": "",
          "type": "int256"
        }
      ],
      "stateMutability": "view",
      "type": "function"
    },
    {
      "inputs": [],
      "name": "owner",
      "outputs": [
        {
          "internalType": "address",
          "name": "",
          "type": "address"
        }
      ],
      "stateMutability": "view",
      "type": "function"
    },
    {
      "inputs": [],
      "name": "releaseTime",
      "outputs": [
        {
          "internalType": "uint256",
          "name": "",
          "type": "uint256"
        }
      ],
      "stateMutability": "view",
      "type": "function"
    },
    {
      "inputs": [
        {
          "internalType": "address payable",
          "name": "_beneficiary",
          "type": "address"
        },
        {
          "internalType": "uint256",
          "name": "_releaseTime",
          "type": "uint256"
        }
      ],
      "name": "lock",
      "outputs": [],
      "stateMutability": "payable",
      "type": "function"
    },
    {
      "inputs": [],
      "name": "release",
      "outputs": [],
      "stateMutability": "nonpayable",
      "type": "function"
    },
    {
      "inputs": [],
      "name": "getLatestPrice",
      "outputs": [
        {
          "internalType": "int256",
          "name": "",
          "type": "int256"
        }
      ],
      "stateMutability": "view",
      "type": "function"
    },
    {
      "inputs": [],
      "name": "getLatestPriceTimestamp",
      "outputs": [
        {
          "internalType": "uint256",
          "name": "",
          "type": "uint256"
        }
      ],
      "stateMutability": "view",
      "type": "function"
    },
    {
      "inputs": [],
      "name": "balanceOfContract",
      "outputs": [
        {
          "internalType": "uint256",
          "name": "",
          "type": "uint256"
        }
      ],
      "stateMutability": "view",
      "type": "function"
    }
  ],
  "bytecode": "0x608060405234801561001057600080fd5b506040516106873803806106878339818101604052602081101561003357600080fd5b8101908080519060200190929190505050806000806101000a81548173ffffffffffffffffffffffffffffffffffffffff021916908373ffffffffffffffffffffffffffffffffffffffff16021790555033600460006101000a81548173ffffffffffffffffffffffffffffffffffffffff021916908373ffffffffffffffffffffffffffffffffffffffff160217905550506105b2806100d56000396000f3fe6080604052600436106100865760003560e01c80638da5cb5b116100595780638da5cb5b146101725780638e15f473146101c95780639d1b464a146101f4578063b91d40011461021f578063e6c7c4561461024a57610086565b80630d0d2b011461008b578063282d3fdf146100b657806338af3eed1461010457806386d1a69f1461015b575b600080fd5b34801561009757600080fd5b506100a0610275565b6040518082815260200191505060405180910390f35b610102600480360360408110156100cc57600080fd5b81019080803573ffffffffffffffffffffffffffffffffffffffff1690602001909291908035906020019092919050505061031e565b005b34801561011057600080fd5b506101196103c2565b604051808273ffffffffffffffffffffffffffffffffffffffff1673ffffffffffffffffffffffffffffffffffffffff16815260200191505060405180910390f35b34801561016757600080fd5b506101706103e8565b005b34801561017e57600080fd5b50610187610462565b604051808273ffffffffffffffffffffffffffffffffffffffff1673ffffffffffffffffffffffffffffffffffffffff16815260200191505060405180910390f35b3480156101d557600080fd5b506101de610488565b6040518082815260200191505060405180910390f35b34801561020057600080fd5b50610209610531565b6040518082815260200191505060405180910390f35b34801561022b57600080fd5b50610234610537565b6040518082815260200191505060405180910390f35b34801561025657600080fd5b5061025f61053d565b6040518082815260200191505060405180910390f35b60008060009054906101000a900473ffffffffffffffffffffffffffffffffffffffff1673ffffffffffffffffffffffffffffffffffffffff16638205bf6a6040518163ffffffff1660e01b815260040160206040518083038186803b1580156102de57600080fd5b505afa1580156102f2573d6000803e3d6000fd5b505050506040513d602081101561030857600080fd5b8101908080519060200190929190505050905090565b428111610376576040517f08c379a00000000000000000000000000000000000000000000000000000000081526004018080602001828103825260378152602001806105466037913960400191505060405180910390fd5b81600160006101000a81548173ffffffffffffffffffffffffffffffffffffffff021916908373ffffffffffffffffffffffffffffffffffffffff160217905550806002819055505050565b600160009054906101000a900473ffffffffffffffffffffffffffffffffffffffff1681565b6002544210156103f757600080fd5b600160009054906101000a900473ffffffffffffffffffffffffffffffffffffffff1673ffffffffffffffffffffffffffffffffffffffff166108fc479081150290604051600060405180830381858888f1935050505015801561045f573d6000803e3d6000fd5b50565b600460009054906101000a900473ffffffffffffffffffffffffffffffffffffffff1681565b60008060009054906101000a900473ffffffffffffffffffffffffffffffffffffffff1673ffffffffffffffffffffffffffffffffffffffff166350d25bcd6040518163ffffffff1660e01b815260040160206040518083038186803b1580156104f157600080fd5b505afa158015610505573d6000803e3d6000fd5b505050506040513d602081101561051b57600080fd5b8101908080519060200190929190505050905090565b60035481565b60025481565b60004790509056fe52656c656173652074696d65206d757374206265207365742061667465722063757272656e7420626c6f636b2074696d657374616d702ea2646970667358221220e822c0d3ecb07e602647c9c4632ea3577c7be4fa542eea3f11893e4ed6f89ac064736f6c63430006070033",
  "immutableReferences": {},
  "source": "pragma solidity ^0.6.7;\n\nimport \"@chainlink/contracts/src/v0.6/interfaces/AggregatorInterface.sol\";\n\n// MyContract inherits the ChainlinkClient contract to gain the\n// functionality of creating Chainlink requests\ncontract Timelock {\n    // Stores the answer from the Chainlink oracle\n    AggregatorInterface internal priceFeed;\n\n    address payable public beneficiary;\n    uint256 public releaseTime;\n    int256 public currentPrice;\n    address public owner;\n\n    constructor(address _aggregator) public {\n        priceFeed = AggregatorInterface(_aggregator);\n        owner = msg.sender;\n    }\n\n    function lock(address payable _beneficiary, uint256 _releaseTime) public payable {\n        require(\n            _releaseTime > block.timestamp,\n            \"Release time must be set after current block timestamp.\"\n        );\n        beneficiary = _beneficiary;\n        releaseTime = _releaseTime;\n\n    }\n\n    function release() public {\n        require(block.timestamp >= releaseTime);\n        payable(beneficiary).transfer(address(this).balance);\n    }\n\n    /**\n     * Returns the latest price\n     */\n    function getLatestPrice() public view returns (int256) {\n        return priceFeed.latestAnswer();\n    }\n\n    /**\n     * Returns the timestamp of the latest price update\n     */\n    function getLatestPriceTimestamp() public view returns (uint256) {\n        return priceFeed.latestTimestamp();\n    }\n\n    function balanceOfContract() public view returns (uint256) {\n        return address(this).balance;\n    }\n}\n",
  "sourcePath": "/Users/colinbowen/Documents/workspace/chainlink/piggy/contracts/Timelock.sol",
  "compiler": {
    "name": "solc",
    "version": "0.6.7+commit.b8d736ae.Emscripten.clang"
  },
  "schemaVersion": "3.2.3",
  "updatedAt": "2020-07-26T16:39:11.068Z",
  "devdoc": {
    "methods": {}
  },
  "userdoc": {
    "methods": {
      "getLatestPrice()": {
        "notice": "Returns the latest price"
      },
      "getLatestPriceTimestamp()": {
        "notice": "Returns the timestamp of the latest price update"
      }
    }
  }
}