{
  "contractName": "Timelock",
  "abi": [
    {
      "inputs": [
        {
          "internalType": "address",
          "name": "_aggregator",
          "type": "address"
        }
      ],
      "stateMutability": "nonpayable",
      "type": "constructor"
    },
    {
      "inputs": [],
      "name": "beneficiary",
      "outputs": [
        {
          "internalType": "address payable",
          "name": "",
          "type": "address"
        }
      ],
      "stateMutability": "view",
      "type": "function",
      "constant": true
    },
    {
      "inputs": [],
      "name": "currentPrice",
      "outputs": [
        {
          "internalType": "int256",
          "name": "",
          "type": "int256"
        }
      ],
      "stateMutability": "view",
      "type": "function",
      "constant": true
    },
    {
      "inputs": [],
      "name": "locked",
      "outputs": [
        {
          "internalType": "bool",
          "name": "",
          "type": "bool"
        }
      ],
      "stateMutability": "view",
      "type": "function",
      "constant": true
    },
    {
      "inputs": [],
      "name": "owner",
      "outputs": [
        {
          "internalType": "address",
          "name": "",
          "type": "address"
        }
      ],
      "stateMutability": "view",
      "type": "function",
      "constant": true
    },
    {
      "inputs": [],
      "name": "releaseTime",
      "outputs": [
        {
          "internalType": "uint256",
          "name": "",
          "type": "uint256"
        }
      ],
      "stateMutability": "view",
      "type": "function",
      "constant": true
    },
    {
      "inputs": [
        {
          "internalType": "uint256",
          "name": "_releaseTime",
          "type": "uint256"
        }
      ],
      "name": "lock",
      "outputs": [],
      "stateMutability": "nonpayable",
      "type": "function"
    },
    {
      "inputs": [],
      "name": "deposit",
      "outputs": [],
      "stateMutability": "payable",
      "type": "function",
      "payable": true
    },
    {
      "inputs": [],
      "name": "release",
      "outputs": [],
      "stateMutability": "nonpayable",
      "type": "function"
    },
    {
      "inputs": [],
      "name": "lockStatus",
      "outputs": [
        {
          "internalType": "bool",
          "name": "",
          "type": "bool"
        }
      ],
      "stateMutability": "view",
      "type": "function",
      "constant": true
    },
    {
      "inputs": [],
      "name": "getReleaseTime",
      "outputs": [
        {
          "internalType": "uint256",
          "name": "",
          "type": "uint256"
        }
      ],
      "stateMutability": "view",
      "type": "function",
      "constant": true
    },
    {
      "inputs": [],
      "name": "getLatestPrice",
      "outputs": [
        {
          "internalType": "int256",
          "name": "",
          "type": "int256"
        }
      ],
      "stateMutability": "view",
      "type": "function",
      "constant": true
    },
    {
      "inputs": [],
      "name": "getLatestPriceTimestamp",
      "outputs": [
        {
          "internalType": "uint256",
          "name": "",
          "type": "uint256"
        }
      ],
      "stateMutability": "view",
      "type": "function",
      "constant": true
    },
    {
      "inputs": [],
      "name": "balance",
      "outputs": [
        {
          "internalType": "uint256",
          "name": "",
          "type": "uint256"
        }
      ],
      "stateMutability": "view",
      "type": "function",
      "constant": true
    }
  ],
  "bytecode": "0x608060405234801561001057600080fd5b506040516107fd3803806107fd8339818101604052602081101561003357600080fd5b8101908080519060200190929190505050806000806101000a81548173ffffffffffffffffffffffffffffffffffffffff021916908373ffffffffffffffffffffffffffffffffffffffff16021790555033600460006101000a81548173ffffffffffffffffffffffffffffffffffffffff021916908373ffffffffffffffffffffffffffffffffffffffff1602179055506000600160146101000a81548160ff0219169083151502179055505061070d806100f06000396000f3fe6080604052600436106100c25760003560e01c80638e15f4731161007f578063b91d400111610059578063b91d400114610292578063cf309012146102bd578063d0e30db0146102ec578063dd467064146102f6576100c2565b80638e15f473146102115780639d1b464a1461023c578063b69ef8a814610267576100c2565b80630d0d2b01146100c757806338af3eed146100f25780633e89340f1461014957806353462d6b1461017857806386d1a69f146101a35780638da5cb5b146101ba575b600080fd5b3480156100d357600080fd5b506100dc610331565b6040518082815260200191505060405180910390f35b3480156100fe57600080fd5b506101076103da565b604051808273ffffffffffffffffffffffffffffffffffffffff1673ffffffffffffffffffffffffffffffffffffffff16815260200191505060405180910390f35b34801561015557600080fd5b5061015e610400565b604051808215151515815260200191505060405180910390f35b34801561018457600080fd5b5061018d610417565b6040518082815260200191505060405180910390f35b3480156101af57600080fd5b506101b8610421565b005b3480156101c657600080fd5b506101cf6104b6565b604051808273ffffffffffffffffffffffffffffffffffffffff1673ffffffffffffffffffffffffffffffffffffffff16815260200191505060405180910390f35b34801561021d57600080fd5b506102266104dc565b6040518082815260200191505060405180910390f35b34801561024857600080fd5b50610251610585565b6040518082815260200191505060405180910390f35b34801561027357600080fd5b5061027c61058b565b6040518082815260200191505060405180910390f35b34801561029e57600080fd5b506102a7610593565b6040518082815260200191505060405180910390f35b3480156102c957600080fd5b506102d2610599565b604051808215151515815260200191505060405180910390f35b6102f46105ac565b005b34801561030257600080fd5b5061032f6004803603602081101561031957600080fd5b81019080803590602001909291905050506105ae565b005b60008060009054906101000a900473ffffffffffffffffffffffffffffffffffffffff1673ffffffffffffffffffffffffffffffffffffffff16638205bf6a6040518163ffffffff1660e01b815260040160206040518083038186803b15801561039a57600080fd5b505afa1580156103ae573d6000803e3d6000fd5b505050506040513d60208110156103c457600080fd5b8101908080519060200190929190505050905090565b600160009054906101000a900473ffffffffffffffffffffffffffffffffffffffff1681565b6000600160149054906101000a900460ff16905090565b6000600254905090565b60025442101561043057600080fd5b600160009054906101000a900473ffffffffffffffffffffffffffffffffffffffff1673ffffffffffffffffffffffffffffffffffffffff166108fc479081150290604051600060405180830381858888f19350505050158015610498573d6000803e3d6000fd5b506000600160146101000a81548160ff021916908315150217905550565b600460009054906101000a900473ffffffffffffffffffffffffffffffffffffffff1681565b60008060009054906101000a900473ffffffffffffffffffffffffffffffffffffffff1673ffffffffffffffffffffffffffffffffffffffff166350d25bcd6040518163ffffffff1660e01b815260040160206040518083038186803b15801561054557600080fd5b505afa158015610559573d6000803e3d6000fd5b505050506040513d602081101561056f57600080fd5b8101908080519060200190929190505050905090565b60035481565b600047905090565b60025481565b600160149054906101000a900460ff1681565b565b428111610606576040517f08c379a00000000000000000000000000000000000000000000000000000000081526004018080602001828103825260378152602001806106a16037913960400191505060405180910390fd5b6000471161067c576040517f08c379a00000000000000000000000000000000000000000000000000000000081526004018080602001828103825260138152602001807f4d757374206861766520612062616c616e63650000000000000000000000000081525060200191505060405180910390fd5b8060028190555060018060146101000a81548160ff0219169083151502179055505056fe52656c656173652074696d65206d757374206265207365742061667465722063757272656e7420626c6f636b2074696d657374616d702ea264697066735822122053ebe6fbca62cc2f5347494712ab3cf7f84a129f20cd76707143dc4599e0fd2c64736f6c63430006070033",
  "immutableReferences": {},
  "source": "pragma solidity ^0.6.7;\n\nimport \"@chainlink/contracts/src/v0.6/interfaces/AggregatorInterface.sol\";\n\n// MyContract inherits the ChainlinkClient contract to gain the\n// functionality of creating Chainlink requests\ncontract Timelock {\n    // Stores the answer from the Chainlink oracle\n    AggregatorInterface internal priceFeed;\n\n    address payable public beneficiary;\n    bool public locked;\n    uint256 public releaseTime;\n    int256 public currentPrice;\n    address public owner;\n\n    constructor(address _aggregator) public {\n        priceFeed = AggregatorInterface(_aggregator);\n        owner = msg.sender;\n        locked = false;\n    }\n\n    function lock(uint256 _releaseTime) public {\n        require(\n            _releaseTime > block.timestamp,\n            \"Release time must be set after current block timestamp.\"\n        );\n        require(address(this).balance > 0, \"Must have a balance\");\n        releaseTime = _releaseTime;\n        locked = true;\n    }\n\n    function deposit() external payable {\n        // beneficiary = _beneficiary;\n        // beneficiary = msg.sender;\n    }\n\n    function release() public {\n        require(block.timestamp >= releaseTime);\n        payable(beneficiary).transfer(address(this).balance);\n        locked = false;\n    }\n\n    function lockStatus() public view returns (bool) {\n        return locked;\n    }\n\n    function getReleaseTime() public view returns (uint256) {\n        return releaseTime;\n    }\n\n    /**\n     * Returns the latest price\n     */\n    function getLatestPrice() public view returns (int256) {\n        return priceFeed.latestAnswer();\n    }\n\n    /**\n     * Returns the timestamp of the latest price update\n     */\n    function getLatestPriceTimestamp() public view returns (uint256) {\n        return priceFeed.latestTimestamp();\n    }\n\n    function balance() public view returns (uint256) {\n        return address(this).balance;\n    }\n}\n",
  "sourcePath": "/Users/colinbowen/Documents/workspace/chainlink/piggy/contracts/Timelock.sol",
  "compiler": {
    "name": "solc",
    "version": "0.6.7+commit.b8d736ae.Emscripten.clang"
  },
  "schemaVersion": "3.2.3",
  "updatedAt": "2020-07-26T21:33:27.305Z",
  "networkType": "ethereum",
  "devdoc": {
    "methods": {}
  },
  "userdoc": {
    "methods": {
      "getLatestPrice()": {
        "notice": "Returns the latest price"
      },
      "getLatestPriceTimestamp()": {
        "notice": "Returns the timestamp of the latest price update"
      }
    }
  }
}