{
  "contractName": "Timelock",
  "abi": [
    {
      "inputs": [
        {
          "internalType": "address",
          "name": "_aggregator",
          "type": "address"
        }
      ],
      "stateMutability": "nonpayable",
      "type": "constructor"
    },
    {
      "inputs": [],
      "name": "beneficiary",
      "outputs": [
        {
          "internalType": "address payable",
          "name": "",
          "type": "address"
        }
      ],
      "stateMutability": "view",
      "type": "function",
      "constant": true
    },
    {
      "inputs": [],
      "name": "currentPrice",
      "outputs": [
        {
          "internalType": "int256",
          "name": "",
          "type": "int256"
        }
      ],
      "stateMutability": "view",
      "type": "function",
      "constant": true
    },
    {
      "inputs": [],
      "name": "owner",
      "outputs": [
        {
          "internalType": "address",
          "name": "",
          "type": "address"
        }
      ],
      "stateMutability": "view",
      "type": "function",
      "constant": true
    },
    {
      "inputs": [],
      "name": "releaseTime",
      "outputs": [
        {
          "internalType": "uint256",
          "name": "",
          "type": "uint256"
        }
      ],
      "stateMutability": "view",
      "type": "function",
      "constant": true
    },
    {
      "inputs": [
        {
          "internalType": "uint256",
          "name": "_releaseTime",
          "type": "uint256"
        }
      ],
      "name": "lock",
      "outputs": [],
      "stateMutability": "nonpayable",
      "type": "function"
    },
    {
      "inputs": [],
      "name": "deposit",
      "outputs": [],
      "stateMutability": "payable",
      "type": "function",
      "payable": true
    },
    {
      "inputs": [],
      "name": "release",
      "outputs": [],
      "stateMutability": "nonpayable",
      "type": "function"
    },
    {
      "inputs": [],
      "name": "getLatestPrice",
      "outputs": [
        {
          "internalType": "int256",
          "name": "",
          "type": "int256"
        }
      ],
      "stateMutability": "view",
      "type": "function",
      "constant": true
    },
    {
      "inputs": [],
      "name": "getLatestPriceTimestamp",
      "outputs": [
        {
          "internalType": "uint256",
          "name": "",
          "type": "uint256"
        }
      ],
      "stateMutability": "view",
      "type": "function",
      "constant": true
    },
    {
      "inputs": [],
      "name": "balance",
      "outputs": [
        {
          "internalType": "uint256",
          "name": "",
          "type": "uint256"
        }
      ],
      "stateMutability": "view",
      "type": "function",
      "constant": true
    }
  ],
  "bytecode": "0x608060405234801561001057600080fd5b506040516106bf3803806106bf8339818101604052602081101561003357600080fd5b8101908080519060200190929190505050806000806101000a81548173ffffffffffffffffffffffffffffffffffffffff021916908373ffffffffffffffffffffffffffffffffffffffff16021790555033600460006101000a81548173ffffffffffffffffffffffffffffffffffffffff021916908373ffffffffffffffffffffffffffffffffffffffff160217905550506105ea806100d56000396000f3fe6080604052600436106100915760003560e01c80639d1b464a116100595780639d1b464a146101b1578063b69ef8a8146101dc578063b91d400114610207578063d0e30db014610232578063dd4670641461023c57610091565b80630d0d2b011461009657806338af3eed146100c157806386d1a69f146101185780638da5cb5b1461012f5780638e15f47314610186575b600080fd5b3480156100a257600080fd5b506100ab610277565b6040518082815260200191505060405180910390f35b3480156100cd57600080fd5b506100d6610320565b604051808273ffffffffffffffffffffffffffffffffffffffff1673ffffffffffffffffffffffffffffffffffffffff16815260200191505060405180910390f35b34801561012457600080fd5b5061012d610346565b005b34801561013b57600080fd5b506101446103c0565b604051808273ffffffffffffffffffffffffffffffffffffffff1673ffffffffffffffffffffffffffffffffffffffff16815260200191505060405180910390f35b34801561019257600080fd5b5061019b6103e6565b6040518082815260200191505060405180910390f35b3480156101bd57600080fd5b506101c661048f565b6040518082815260200191505060405180910390f35b3480156101e857600080fd5b506101f1610495565b6040518082815260200191505060405180910390f35b34801561021357600080fd5b5061021c61049d565b6040518082815260200191505060405180910390f35b61023a6104a3565b005b34801561024857600080fd5b506102756004803603602081101561025f57600080fd5b81019080803590602001909291905050506104a5565b005b60008060009054906101000a900473ffffffffffffffffffffffffffffffffffffffff1673ffffffffffffffffffffffffffffffffffffffff16638205bf6a6040518163ffffffff1660e01b815260040160206040518083038186803b1580156102e057600080fd5b505afa1580156102f4573d6000803e3d6000fd5b505050506040513d602081101561030a57600080fd5b8101908080519060200190929190505050905090565b600160009054906101000a900473ffffffffffffffffffffffffffffffffffffffff1681565b60025442101561035557600080fd5b600160009054906101000a900473ffffffffffffffffffffffffffffffffffffffff1673ffffffffffffffffffffffffffffffffffffffff166108fc479081150290604051600060405180830381858888f193505050501580156103bd573d6000803e3d6000fd5b50565b600460009054906101000a900473ffffffffffffffffffffffffffffffffffffffff1681565b60008060009054906101000a900473ffffffffffffffffffffffffffffffffffffffff1673ffffffffffffffffffffffffffffffffffffffff166350d25bcd6040518163ffffffff1660e01b815260040160206040518083038186803b15801561044f57600080fd5b505afa158015610463573d6000803e3d6000fd5b505050506040513d602081101561047957600080fd5b8101908080519060200190929190505050905090565b60035481565b600047905090565b60025481565b565b4281116104fd576040517f08c379a000000000000000000000000000000000000000000000000000000000815260040180806020018281038252603781526020018061057e6037913960400191505060405180910390fd5b60004711610573576040517f08c379a00000000000000000000000000000000000000000000000000000000081526004018080602001828103825260138152602001807f4d757374206861766520612062616c616e63650000000000000000000000000081525060200191505060405180910390fd5b806002819055505056fe52656c656173652074696d65206d757374206265207365742061667465722063757272656e7420626c6f636b2074696d657374616d702ea2646970667358221220e8cd14b069f17b7278a40108ab7ed5f3ee4b4ecf33972c9d137aeb7b0a8151a764736f6c63430006070033",
  "immutableReferences": {},
  "source": "pragma solidity ^0.6.7;\n\nimport \"@chainlink/contracts/src/v0.6/interfaces/AggregatorInterface.sol\";\n\n// MyContract inherits the ChainlinkClient contract to gain the\n// functionality of creating Chainlink requests\ncontract Timelock {\n    // Stores the answer from the Chainlink oracle\n    AggregatorInterface internal priceFeed;\n\n    address payable public beneficiary;\n    uint256 public releaseTime;\n    int256 public currentPrice;\n    address public owner;\n\n    constructor(address _aggregator) public {\n        priceFeed = AggregatorInterface(_aggregator);\n        owner = msg.sender;\n    }\n\n    function lock(uint256 _releaseTime) public {\n        require(\n            _releaseTime > block.timestamp,\n            \"Release time must be set after current block timestamp.\"\n        );\n        require(address(this).balance > 0, \"Must have a balance\");\n        releaseTime = _releaseTime;\n    }\n\n    function deposit() external payable {\n        // beneficiary = _beneficiary;\n        // beneficiary = msg.sender;\n    }\n\n    function release() public {\n        require(block.timestamp >= releaseTime);\n        payable(beneficiary).transfer(address(this).balance);\n    }\n\n    /**\n     * Returns the latest price\n     */\n    function getLatestPrice() public view returns (int256) {\n        return priceFeed.latestAnswer();\n    }\n\n    /**\n     * Returns the timestamp of the latest price update\n     */\n    function getLatestPriceTimestamp() public view returns (uint256) {\n        return priceFeed.latestTimestamp();\n    }\n\n    function balance() public view returns (uint256) {\n        return address(this).balance;\n    }\n}\n",
  "sourcePath": "/Users/colinbowen/Documents/workspace/chainlink/piggy/contracts/Timelock.sol",
  "compiler": {
    "name": "solc",
    "version": "0.6.7+commit.b8d736ae.Emscripten.clang"
  },
  "schemaVersion": "3.2.3",
  "updatedAt": "2020-07-26T20:58:30.701Z",
  "networkType": "ethereum",
  "devdoc": {
    "methods": {}
  },
  "userdoc": {
    "methods": {
      "getLatestPrice()": {
        "notice": "Returns the latest price"
      },
      "getLatestPriceTimestamp()": {
        "notice": "Returns the timestamp of the latest price update"
      }
    }
  }
}