{
  "contractName": "Voting",
  "abi": [
    {
      "anonymous": false,
      "inputs": [],
      "name": "UpdateCandidates",
      "type": "event"
    },
    {
      "constant": true,
      "inputs": [
        {
          "internalType": "bytes32",
          "name": "",
          "type": "bytes32"
        }
      ],
      "name": "votes",
      "outputs": [
        {
          "internalType": "uint8",
          "name": "",
          "type": "uint8"
        }
      ],
      "payable": false,
      "stateMutability": "view",
      "type": "function"
    },
    {
      "constant": true,
      "inputs": [
        {
          "internalType": "bytes32",
          "name": "candidate",
          "type": "bytes32"
        }
      ],
      "name": "getCandidateVotes",
      "outputs": [
        {
          "internalType": "uint8",
          "name": "",
          "type": "uint8"
        }
      ],
      "payable": false,
      "stateMutability": "view",
      "type": "function"
    },
    {
      "constant": true,
      "inputs": [],
      "name": "listCandidates",
      "outputs": [
        {
          "internalType": "bytes32[]",
          "name": "",
          "type": "bytes32[]"
        }
      ],
      "payable": false,
      "stateMutability": "view",
      "type": "function"
    },
    {
      "constant": false,
      "inputs": [
        {
          "internalType": "bytes32",
          "name": "candidate",
          "type": "bytes32"
        }
      ],
      "name": "postulateCandidate",
      "outputs": [],
      "payable": false,
      "stateMutability": "nonpayable",
      "type": "function"
    },
    {
      "constant": false,
      "inputs": [
        {
          "internalType": "bytes32",
          "name": "candidate",
          "type": "bytes32"
        }
      ],
      "name": "voteForCandidate",
      "outputs": [],
      "payable": false,
      "stateMutability": "nonpayable",
      "type": "function"
    }
  ],
  "bytecode": "0x608060405234801561001057600080fd5b506103c9806100206000396000f3fe608060405234801561001057600080fd5b50600436106100575760003560e01c80632b38cd961461005c578063a656234f146100a4578063cc9ab267146100ec578063d4ca00f11461011a578063f0f5274e14610148575b600080fd5b6100886004803603602081101561007257600080fd5b81019080803590602001909291905050506101a7565b604051808260ff1660ff16815260200191505060405180910390f35b6100d0600480360360208110156100ba57600080fd5b81019080803590602001909291905050506101c7565b604051808260ff1660ff16815260200191505060405180910390f35b6101186004803603602081101561010257600080fd5b81019080803590602001909291905050506101ff565b005b6101466004803603602081101561013057600080fd5b810190808035906020019092919050505061027b565b005b6101506102e6565b6040518080602001828103825283818151815260200191508051906020019060200280838360005b83811015610193578082015181840152602081019050610178565b505050509050019250505060405180910390f35b60006020528060005260406000206000915054906101000a900460ff1681565b60006101d28261033e565b6101d857fe5b60008083815260200190815260200160002060009054906101000a900460ff169050919050565b6102088161033e565b61020e57fe5b600160008083815260200190815260200160002060008282829054906101000a900460ff160192506101000a81548160ff021916908360ff1602179055507fdd0f1f6f364d3aff1f7d97d9260ba0a0acfcbfa5148dd66cc62f07ccbcf874ce60405160405180910390a150565b6102848161033e565b1561028b57fe5b60018190806001815401808255809150509060018203906000526020600020016000909192909190915055507fdd0f1f6f364d3aff1f7d97d9260ba0a0acfcbfa5148dd66cc62f07ccbcf874ce60405160405180910390a150565b6060600180548060200260200160405190810160405280929190818152602001828054801561033457602002820191906000526020600020905b815481526020019060010190808311610320575b5050505050905090565b600080600090505b60018054905081101561038957826001828154811061036157fe5b9060005260206000200154141561037c57600191505061038f565b8080600101915050610346565b50600090505b91905056fea265627a7a723158205d3c416ba1c029f38c1f5edc88a0febdd5d25aa3fd30d97aeac074575b306b4064736f6c63430005100032",
  "source": "pragma solidity ^0.5.16;\n\ncontract Voting {\n  mapping (bytes32 => uint8) public votes;\n  bytes32[] private candidateList;\n\n  event UpdateCandidates();\n\n  function getCandidateVotes(bytes32 candidate) public view returns (uint8) {\n    assert(doesCandidateExist(candidate));\n\n    return votes[candidate];\n  }\n\n  function listCandidates() public view returns (bytes32[] memory) {\n    return candidateList;\n  }\n\n  function postulateCandidate(bytes32 candidate) public {\n    assert(!doesCandidateExist(candidate));\n\n    candidateList.push(candidate);\n    emit UpdateCandidates();\n  }\n\n  function voteForCandidate(bytes32 candidate) public {\n    assert(doesCandidateExist(candidate));\n\n    votes[candidate] += 1;\n    emit UpdateCandidates();\n  }\n\n  function doesCandidateExist(bytes32 candidate) internal view returns (bool) {\n    for (uint i = 0; i < candidateList.length; i++) {\n      if (candidateList[i] == candidate) {\n        return true;\n      }\n    }\n    return false;\n  }\n}",
  "sourcePath": "/Users/colinbowen/Documents/workspace/chainlink/piggy/contracts/Voting.sol",
  "compiler": {
    "name": "solc",
    "version": "0.5.16+commit.9c3226ce.Emscripten.clang"
  },
  "schemaVersion": "3.2.3",
  "updatedAt": "2020-07-26T00:27:22.237Z",
  "devdoc": {
    "methods": {}
  },
  "userdoc": {
    "methods": {}
  }
}